{
  "_format": "hh-sol-artifact-1",
  "contractName": "Winlo",
  "sourceName": "contracts/Winlo.sol",
  "abi": [
    {
      "inputs": [
        {
          "internalType": "address",
          "name": "_vrfCoordinatorAddress",
          "type": "address"
        },
        {
          "internalType": "address",
          "name": "_linkTokenAddress",
          "type": "address"
        },
        {
          "internalType": "bytes32",
          "name": "_keyHash",
          "type": "bytes32"
        }
      ],
      "stateMutability": "nonpayable",
      "type": "constructor"
    },
    {
      "anonymous": false,
      "inputs": [
        {
          "indexed": true,
          "internalType": "address",
          "name": "_player",
          "type": "address"
        }
      ],
      "name": "NewPlayer",
      "type": "event"
    },
    {
      "anonymous": false,
      "inputs": [
        {
          "indexed": true,
          "internalType": "address",
          "name": "_player",
          "type": "address"
        },
        {
          "indexed": true,
          "internalType": "uint256",
          "name": "_refundedAmount",
          "type": "uint256"
        }
      ],
      "name": "Refund",
      "type": "event"
    },
    {
      "anonymous": false,
      "inputs": [
        {
          "indexed": true,
          "internalType": "address",
          "name": "_winner",
          "type": "address"
        },
        {
          "indexed": true,
          "internalType": "uint256",
          "name": "_prize",
          "type": "uint256"
        }
      ],
      "name": "Winner",
      "type": "event"
    },
    {
      "inputs": [],
      "name": "buyTicket",
      "outputs": [],
      "stateMutability": "payable",
      "type": "function"
    },
    {
      "inputs": [
        {
          "internalType": "address",
          "name": "_owner",
          "type": "address"
        }
      ],
      "name": "changeOwner",
      "outputs": [],
      "stateMutability": "nonpayable",
      "type": "function"
    },
    {
      "inputs": [],
      "name": "getPlayers",
      "outputs": [
        {
          "internalType": "address payable[]",
          "name": "",
          "type": "address[]"
        }
      ],
      "stateMutability": "view",
      "type": "function"
    },
    {
      "inputs": [],
      "name": "getWinners",
      "outputs": [
        {
          "internalType": "address[]",
          "name": "",
          "type": "address[]"
        }
      ],
      "stateMutability": "view",
      "type": "function"
    },
    {
      "inputs": [],
      "name": "lastWinner",
      "outputs": [
        {
          "internalType": "address",
          "name": "",
          "type": "address"
        }
      ],
      "stateMutability": "view",
      "type": "function"
    },
    {
      "inputs": [],
      "name": "owner",
      "outputs": [
        {
          "internalType": "address",
          "name": "",
          "type": "address"
        }
      ],
      "stateMutability": "view",
      "type": "function"
    },
    {
      "inputs": [],
      "name": "pause",
      "outputs": [],
      "stateMutability": "nonpayable",
      "type": "function"
    },
    {
      "inputs": [
        {
          "internalType": "uint256",
          "name": "",
          "type": "uint256"
        }
      ],
      "name": "players",
      "outputs": [
        {
          "internalType": "address payable",
          "name": "",
          "type": "address"
        }
      ],
      "stateMutability": "view",
      "type": "function"
    },
    {
      "inputs": [],
      "name": "randomResult",
      "outputs": [
        {
          "internalType": "uint256",
          "name": "",
          "type": "uint256"
        }
      ],
      "stateMutability": "view",
      "type": "function"
    },
    {
      "inputs": [
        {
          "internalType": "bytes32",
          "name": "requestId",
          "type": "bytes32"
        },
        {
          "internalType": "uint256",
          "name": "randomness",
          "type": "uint256"
        }
      ],
      "name": "rawFulfillRandomness",
      "outputs": [],
      "stateMutability": "nonpayable",
      "type": "function"
    },
    {
      "inputs": [],
      "name": "selectWinner",
      "outputs": [
        {
          "internalType": "bytes32",
          "name": "requestId",
          "type": "bytes32"
        }
      ],
      "stateMutability": "nonpayable",
      "type": "function"
    },
    {
      "inputs": [],
      "name": "state",
      "outputs": [
        {
          "internalType": "enum CircuitBreaker.State",
          "name": "",
          "type": "uint8"
        }
      ],
      "stateMutability": "view",
      "type": "function"
    },
    {
      "inputs": [],
      "name": "unpause",
      "outputs": [],
      "stateMutability": "nonpayable",
      "type": "function"
    },
    {
      "inputs": [
        {
          "internalType": "uint256",
          "name": "",
          "type": "uint256"
        }
      ],
      "name": "winners",
      "outputs": [
        {
          "internalType": "address",
          "name": "",
          "type": "address"
        }
      ],
      "stateMutability": "view",
      "type": "function"
    }
  ],
  "bytecode": "0x60c060405266038d7ea4c680006002553480156200001c57600080fd5b5060405162001ec238038062001ec28339818101604052810190620000429190620001e0565b8282336000806101000a81548173ffffffffffffffffffffffffffffffffffffffff021916908373ffffffffffffffffffffffffffffffffffffffff1602179055506001600060146101000a81548160ff02191690836001811115620000ad57620000ac6200023c565b5b02179055508173ffffffffffffffffffffffffffffffffffffffff1660a08173ffffffffffffffffffffffffffffffffffffffff16815250508073ffffffffffffffffffffffffffffffffffffffff1660808173ffffffffffffffffffffffffffffffffffffffff168152505050508060068190555067016345785d8a00006007819055505050506200026b565b600080fd5b600073ffffffffffffffffffffffffffffffffffffffff82169050919050565b60006200016d8262000140565b9050919050565b6200017f8162000160565b81146200018b57600080fd5b50565b6000815190506200019f8162000174565b92915050565b6000819050919050565b620001ba81620001a5565b8114620001c657600080fd5b50565b600081519050620001da81620001af565b92915050565b600080600060608486031215620001fc57620001fb6200013b565b5b60006200020c868287016200018e565b93505060206200021f868287016200018e565b92505060406200023286828701620001c9565b9150509250925092565b7f4e487b7100000000000000000000000000000000000000000000000000000000600052602160045260246000fd5b60805160a051611c236200029f600039600081816107480152610ba201526000818161041e0152610b660152611c236000f3fe6080604052600436106100dd5760003560e01c8063a2fb11751161007f578063df15c37e11610059578063df15c37e14610276578063edca914c146102a1578063f71d96cb146102ab578063fe188184146102e8576100dd565b8063a2fb1175146101e5578063a6f9dae114610222578063c19d93fb1461024b576100dd565b80638456cb59116100bb5780638456cb591461014f5780638b5b9ccc146101665780638da5cb5b1461019157806394985ddd146101bc576100dd565b806333a99e04146100e25780633f4ba83a1461010d57806342619f6614610124575b600080fd5b3480156100ee57600080fd5b506100f7610313565b60405161010491906110a4565b60405180910390f35b34801561011957600080fd5b50610122610519565b005b34801561013057600080fd5b506101396105d4565b60405161014691906110d8565b60405180910390f35b34801561015b57600080fd5b506101646105da565b005b34801561017257600080fd5b5061017b610694565b60405161018891906111e3565b60405180910390f35b34801561019d57600080fd5b506101a6610722565b6040516101b39190611226565b60405180910390f35b3480156101c857600080fd5b506101e360048036038101906101de919061129e565b610746565b005b3480156101f157600080fd5b5061020c600480360381019061020791906112de565b6107e2565b6040516102199190611226565b60405180910390f35b34801561022e57600080fd5b5061024960048036038101906102449190611337565b610821565b005b34801561025757600080fd5b506102606108f2565b60405161026d91906113db565b60405180910390f35b34801561028257600080fd5b5061028b610905565b60405161029891906114b4565b60405180910390f35b6102a9610993565b005b3480156102b757600080fd5b506102d260048036038101906102cd91906112de565b610afd565b6040516102df91906114e5565b60405180910390f35b3480156102f457600080fd5b506102fd610b3c565b60405161030a9190611226565b60405180910390f35b60008060009054906101000a900473ffffffffffffffffffffffffffffffffffffffff1673ffffffffffffffffffffffffffffffffffffffff163373ffffffffffffffffffffffffffffffffffffffff16146103a4576040517f08c379a000000000000000000000000000000000000000000000000000000000815260040161039b9061155d565b60405180910390fd5b6001808111156103b7576103b6611364565b5b600060149054906101000a900460ff1660018111156103d9576103d8611364565b5b14610419576040517f08c379a0000000000000000000000000000000000000000000000000000000008152600401610410906115c9565b60405180910390fd5b6007547f000000000000000000000000000000000000000000000000000000000000000073ffffffffffffffffffffffffffffffffffffffff166370a08231306040518263ffffffff1660e01b81526004016104759190611226565b60206040518083038186803b15801561048d57600080fd5b505afa1580156104a1573d6000803e3d6000fd5b505050506040513d601f19601f820116820180604052508101906104c591906115fe565b1015610506576040517f08c379a00000000000000000000000000000000000000000000000000000000081526004016104fd90611677565b60405180910390fd5b610514600654600754610b62565b905090565b60008054906101000a900473ffffffffffffffffffffffffffffffffffffffff1673ffffffffffffffffffffffffffffffffffffffff163373ffffffffffffffffffffffffffffffffffffffff16146105a7576040517f08c379a000000000000000000000000000000000000000000000000000000000815260040161059e9061155d565b60405180910390fd5b6001600060146101000a81548160ff021916908360018111156105cd576105cc611364565b5b0217905550565b60085481565b60008054906101000a900473ffffffffffffffffffffffffffffffffffffffff1673ffffffffffffffffffffffffffffffffffffffff163373ffffffffffffffffffffffffffffffffffffffff1614610668576040517f08c379a000000000000000000000000000000000000000000000000000000000815260040161065f9061155d565b60405180910390fd5b60008060146101000a81548160ff0219169083600181111561068d5761068c611364565b5b0217905550565b6060600380548060200260200160405190810160405280929190818152602001828054801561071857602002820191906000526020600020905b8160009054906101000a900473ffffffffffffffffffffffffffffffffffffffff1673ffffffffffffffffffffffffffffffffffffffff16815260200190600101908083116106ce575b5050505050905090565b60008054906101000a900473ffffffffffffffffffffffffffffffffffffffff1681565b7f000000000000000000000000000000000000000000000000000000000000000073ffffffffffffffffffffffffffffffffffffffff163373ffffffffffffffffffffffffffffffffffffffff16146107d4576040517f08c379a00000000000000000000000000000000000000000000000000000000081526004016107cb906116e3565b60405180910390fd5b6107de8282610cc3565b5050565b600481815481106107f257600080fd5b906000526020600020016000915054906101000a900473ffffffffffffffffffffffffffffffffffffffff1681565b60008054906101000a900473ffffffffffffffffffffffffffffffffffffffff1673ffffffffffffffffffffffffffffffffffffffff163373ffffffffffffffffffffffffffffffffffffffff16146108af576040517f08c379a00000000000000000000000000000000000000000000000000000000081526004016108a69061155d565b60405180910390fd5b806000806101000a81548173ffffffffffffffffffffffffffffffffffffffff021916908373ffffffffffffffffffffffffffffffffffffffff16021790555050565b600060149054906101000a900460ff1681565b6060600480548060200260200160405190810160405280929190818152602001828054801561098957602002820191906000526020600020905b8160009054906101000a900473ffffffffffffffffffffffffffffffffffffffff1673ffffffffffffffffffffffffffffffffffffffff168152602001906001019080831161093f575b5050505050905090565b6001808111156109a6576109a5611364565b5b600060149054906101000a900460ff1660018111156109c8576109c7611364565b5b14610a08576040517f08c379a00000000000000000000000000000000000000000000000000000000081526004016109ff906115c9565b60405180910390fd5b600254341015610a4d576040517f08c379a0000000000000000000000000000000000000000000000000000000008152600401610a449061174f565b60405180910390fd5b610a55610ecd565b6003339080600181540180825580915050600190039060005260206000200160009091909190916101000a81548173ffffffffffffffffffffffffffffffffffffffff021916908373ffffffffffffffffffffffffffffffffffffffff1602179055503373ffffffffffffffffffffffffffffffffffffffff167f52e92d4898337244a39bd42674ac561eadfd3959e947deec1c0ab82dd58b5a7560405160405180910390a2565b60038181548110610b0d57600080fd5b906000526020600020016000915054906101000a900473ffffffffffffffffffffffffffffffffffffffff1681565b600560009054906101000a900473ffffffffffffffffffffffffffffffffffffffff1681565b60007f000000000000000000000000000000000000000000000000000000000000000073ffffffffffffffffffffffffffffffffffffffff16634000aea07f000000000000000000000000000000000000000000000000000000000000000084866000604051602001610bd692919061176f565b6040516020818303038152906040526040518463ffffffff1660e01b8152600401610c0393929190611831565b602060405180830381600087803b158015610c1d57600080fd5b505af1158015610c31573d6000803e3d6000fd5b505050506040513d601f19601f82011682018060405250810190610c5591906118a7565b506000610c78846000306001600089815260200190815260200160002054610fde565b9050600180600086815260200190815260200160002054610c999190611903565b6001600086815260200190815260200160002081905550610cba848261101a565b91505092915050565b60038054905081610cd49190611988565b6008819055506000600360085481548110610cf257610cf16119b9565b5b9060005260206000200160009054906101000a900473ffffffffffffffffffffffffffffffffffffffff169050600047905081600560006101000a81548173ffffffffffffffffffffffffffffffffffffffff021916908373ffffffffffffffffffffffffffffffffffffffff1602179055506004829080600181540180825580915050600190039060005260206000200160009091909190916101000a81548173ffffffffffffffffffffffffffffffffffffffff021916908373ffffffffffffffffffffffffffffffffffffffff16021790555060036000610dd6919061104d565b60008273ffffffffffffffffffffffffffffffffffffffff1682604051610dfc90611a19565b60006040518083038185875af1925050503d8060008114610e39576040519150601f19603f3d011682016040523d82523d6000602084013e610e3e565b606091505b5050905080610e82576040517f08c379a0000000000000000000000000000000000000000000000000000000008152600401610e7990611a7a565b60405180910390fd5b818373ffffffffffffffffffffffffffffffffffffffff167f9c2270628a9b29d30ae96b6c4c14ed646ee134febdce38a5b77f2bde9cea2e2060405160405180910390a35050505050565b600254341115610fdc57600060025434610ee79190611a9a565b905060003373ffffffffffffffffffffffffffffffffffffffff1682604051610f0f90611a19565b60006040518083038185875af1925050503d8060008114610f4c576040519150601f19603f3d011682016040523d82523d6000602084013e610f51565b606091505b5050905080610f95576040517f08c379a0000000000000000000000000000000000000000000000000000000008152600401610f8c90611b1a565b60405180910390fd5b813373ffffffffffffffffffffffffffffffffffffffff167fbb28353e4598c3b9199101a66e0989549b659a59a54d2c27fbb183f1932c8e6d60405160405180910390a350505b565b600084848484604051602001610ff79493929190611b3a565b6040516020818303038152906040528051906020012060001c9050949350505050565b6000828260405160200161102f929190611bc1565b60405160208183030381529060405280519060200120905092915050565b508054600082559060005260206000209081019061106b919061106e565b50565b5b8082111561108757600081600090555060010161106f565b5090565b6000819050919050565b61109e8161108b565b82525050565b60006020820190506110b96000830184611095565b92915050565b6000819050919050565b6110d2816110bf565b82525050565b60006020820190506110ed60008301846110c9565b92915050565b600081519050919050565b600082825260208201905092915050565b6000819050602082019050919050565b600073ffffffffffffffffffffffffffffffffffffffff82169050919050565b600061114a8261111f565b9050919050565b61115a8161113f565b82525050565b600061116c8383611151565b60208301905092915050565b6000602082019050919050565b6000611190826110f3565b61119a81856110fe565b93506111a58361110f565b8060005b838110156111d65781516111bd8882611160565b97506111c883611178565b9250506001810190506111a9565b5085935050505092915050565b600060208201905081810360008301526111fd8184611185565b905092915050565b60006112108261111f565b9050919050565b61122081611205565b82525050565b600060208201905061123b6000830184611217565b92915050565b600080fd5b61124f8161108b565b811461125a57600080fd5b50565b60008135905061126c81611246565b92915050565b61127b816110bf565b811461128657600080fd5b50565b60008135905061129881611272565b92915050565b600080604083850312156112b5576112b4611241565b5b60006112c38582860161125d565b92505060206112d485828601611289565b9150509250929050565b6000602082840312156112f4576112f3611241565b5b600061130284828501611289565b91505092915050565b61131481611205565b811461131f57600080fd5b50565b6000813590506113318161130b565b92915050565b60006020828403121561134d5761134c611241565b5b600061135b84828501611322565b91505092915050565b7f4e487b7100000000000000000000000000000000000000000000000000000000600052602160045260246000fd5b600281106113a4576113a3611364565b5b50565b60008190506113b582611393565b919050565b60006113c5826113a7565b9050919050565b6113d5816113ba565b82525050565b60006020820190506113f060008301846113cc565b92915050565b600081519050919050565b600082825260208201905092915050565b6000819050602082019050919050565b61142b81611205565b82525050565b600061143d8383611422565b60208301905092915050565b6000602082019050919050565b6000611461826113f6565b61146b8185611401565b935061147683611412565b8060005b838110156114a757815161148e8882611431565b975061149983611449565b92505060018101905061147a565b5085935050505092915050565b600060208201905081810360008301526114ce8184611456565b905092915050565b6114df8161113f565b82525050565b60006020820190506114fa60008301846114d6565b92915050565b600082825260208201905092915050565b7f4e6f7420617574686f72697a6564000000000000000000000000000000000000600082015250565b6000611547600e83611500565b915061155282611511565b602082019050919050565b600060208201905081810360008301526115768161153a565b9050919050565b7f4e6f7420616c6c6f776564000000000000000000000000000000000000000000600082015250565b60006115b3600b83611500565b91506115be8261157d565b602082019050919050565b600060208201905081810360008301526115e2816115a6565b9050919050565b6000815190506115f881611272565b92915050565b60006020828403121561161457611613611241565b5b6000611622848285016115e9565b91505092915050565b7f4e6f7420656e6f756768204c494e4b0000000000000000000000000000000000600082015250565b6000611661600f83611500565b915061166c8261162b565b602082019050919050565b6000602082019050818103600083015261169081611654565b9050919050565b7f4f6e6c7920565246436f6f7264696e61746f722063616e2066756c66696c6c00600082015250565b60006116cd601f83611500565b91506116d882611697565b602082019050919050565b600060208201905081810360008301526116fc816116c0565b9050919050565b7f596f752073686f756c642073656e7420302e3030312065746800000000000000600082015250565b6000611739601983611500565b915061174482611703565b602082019050919050565b600060208201905081810360008301526117688161172c565b9050919050565b60006040820190506117846000830185611095565b61179160208301846110c9565b9392505050565b600081519050919050565b600082825260208201905092915050565b60005b838110156117d25780820151818401526020810190506117b7565b838111156117e1576000848401525b50505050565b6000601f19601f8301169050919050565b600061180382611798565b61180d81856117a3565b935061181d8185602086016117b4565b611826816117e7565b840191505092915050565b60006060820190506118466000830186611217565b61185360208301856110c9565b818103604083015261186581846117f8565b9050949350505050565b60008115159050919050565b6118848161186f565b811461188f57600080fd5b50565b6000815190506118a18161187b565b92915050565b6000602082840312156118bd576118bc611241565b5b60006118cb84828501611892565b91505092915050565b7f4e487b7100000000000000000000000000000000000000000000000000000000600052601160045260246000fd5b600061190e826110bf565b9150611919836110bf565b9250827fffffffffffffffffffffffffffffffffffffffffffffffffffffffffffffffff0382111561194e5761194d6118d4565b5b828201905092915050565b7f4e487b7100000000000000000000000000000000000000000000000000000000600052601260045260246000fd5b6000611993826110bf565b915061199e836110bf565b9250826119ae576119ad611959565b5b828206905092915050565b7f4e487b7100000000000000000000000000000000000000000000000000000000600052603260045260246000fd5b600081905092915050565b50565b6000611a036000836119e8565b9150611a0e826119f3565b600082019050919050565b6000611a24826119f6565b9150819050919050565b7f416477617264696e67206661696c656400000000000000000000000000000000600082015250565b6000611a64601083611500565b9150611a6f82611a2e565b602082019050919050565b60006020820190508181036000830152611a9381611a57565b9050919050565b6000611aa5826110bf565b9150611ab0836110bf565b925082821015611ac357611ac26118d4565b5b828203905092915050565b7f526566756e64206661696c656400000000000000000000000000000000000000600082015250565b6000611b04600d83611500565b9150611b0f82611ace565b602082019050919050565b60006020820190508181036000830152611b3381611af7565b9050919050565b6000608082019050611b4f6000830187611095565b611b5c60208301866110c9565b611b696040830185611217565b611b7660608301846110c9565b95945050505050565b6000819050919050565b611b9a611b958261108b565b611b7f565b82525050565b6000819050919050565b611bbb611bb6826110bf565b611ba0565b82525050565b6000611bcd8285611b89565b602082019150611bdd8284611baa565b602082019150819050939250505056fea26469706673582212201d01f1684d87a8510149055d06d4b14fed9429e4a3d9904fc4f2b6a2cbfd3b1f64736f6c63430008090033",
  "linkReferences": {},
  "deployedLinkReferences": {}
}