{
  "_format": "hh-sol-artifact-1",
  "contractName": "Winlo",
  "sourceName": "contracts/Winlo.sol",
  "abi": [
    {
      "anonymous": false,
      "inputs": [
        {
          "indexed": true,
          "internalType": "address",
          "name": "_player",
          "type": "address"
        }
      ],
      "name": "NewPlayer",
      "type": "event"
    },
    {
      "anonymous": false,
      "inputs": [
        {
          "indexed": true,
          "internalType": "address",
          "name": "_player",
          "type": "address"
        },
        {
          "indexed": true,
          "internalType": "uint256",
          "name": "_refundedAmount",
          "type": "uint256"
        }
      ],
      "name": "Refund",
      "type": "event"
    },
    {
      "anonymous": false,
      "inputs": [
        {
          "indexed": true,
          "internalType": "address",
          "name": "_winner",
          "type": "address"
        },
        {
          "indexed": true,
          "internalType": "uint256",
          "name": "_prize",
          "type": "uint256"
        }
      ],
      "name": "Winner",
      "type": "event"
    },
    {
      "inputs": [],
      "name": "buyTicket",
      "outputs": [],
      "stateMutability": "payable",
      "type": "function"
    },
    {
      "inputs": [
        {
          "internalType": "address",
          "name": "_owner",
          "type": "address"
        }
      ],
      "name": "changeOwner",
      "outputs": [],
      "stateMutability": "nonpayable",
      "type": "function"
    },
    {
      "inputs": [],
      "name": "getPlayers",
      "outputs": [
        {
          "internalType": "address payable[]",
          "name": "",
          "type": "address[]"
        }
      ],
      "stateMutability": "view",
      "type": "function"
    },
    {
      "inputs": [],
      "name": "getWinners",
      "outputs": [
        {
          "internalType": "address[]",
          "name": "",
          "type": "address[]"
        }
      ],
      "stateMutability": "view",
      "type": "function"
    },
    {
      "inputs": [],
      "name": "lastWinner",
      "outputs": [
        {
          "internalType": "address",
          "name": "",
          "type": "address"
        }
      ],
      "stateMutability": "view",
      "type": "function"
    },
    {
      "inputs": [],
      "name": "owner",
      "outputs": [
        {
          "internalType": "address",
          "name": "",
          "type": "address"
        }
      ],
      "stateMutability": "view",
      "type": "function"
    },
    {
      "inputs": [],
      "name": "pause",
      "outputs": [],
      "stateMutability": "nonpayable",
      "type": "function"
    },
    {
      "inputs": [
        {
          "internalType": "uint256",
          "name": "",
          "type": "uint256"
        }
      ],
      "name": "players",
      "outputs": [
        {
          "internalType": "address payable",
          "name": "",
          "type": "address"
        }
      ],
      "stateMutability": "view",
      "type": "function"
    },
    {
      "inputs": [],
      "name": "selectWinner",
      "outputs": [],
      "stateMutability": "nonpayable",
      "type": "function"
    },
    {
      "inputs": [],
      "name": "state",
      "outputs": [
        {
          "internalType": "enum CircuitBreaker.State",
          "name": "",
          "type": "uint8"
        }
      ],
      "stateMutability": "view",
      "type": "function"
    },
    {
      "inputs": [],
      "name": "unpause",
      "outputs": [],
      "stateMutability": "nonpayable",
      "type": "function"
    },
    {
      "inputs": [
        {
          "internalType": "uint256",
          "name": "",
          "type": "uint256"
        }
      ],
      "name": "winners",
      "outputs": [
        {
          "internalType": "address",
          "name": "",
          "type": "address"
        }
      ],
      "stateMutability": "view",
      "type": "function"
    }
  ],
  "bytecode": "0x608060405266038d7ea4c6800060015534801561001b57600080fd5b50336000806101000a81548173ffffffffffffffffffffffffffffffffffffffff021916908373ffffffffffffffffffffffffffffffffffffffff1602179055506001600060146101000a81548160ff021916908360018111156100825761008161008c565b5b02179055506100bb565b7f4e487b7100000000000000000000000000000000000000000000000000000000600052602160045260246000fd5b611563806100ca6000396000f3fe6080604052600436106100a75760003560e01c8063a6f9dae111610064578063a6f9dae114610184578063c19d93fb146101ad578063df15c37e146101d8578063edca914c14610203578063f71d96cb1461020d578063fe1881841461024a576100a7565b806333a99e04146100ac5780633f4ba83a146100c35780638456cb59146100da5780638b5b9ccc146100f15780638da5cb5b1461011c578063a2fb117514610147575b600080fd5b3480156100b857600080fd5b506100c1610275565b005b3480156100cf57600080fd5b506100d861056e565b005b3480156100e657600080fd5b506100ef610629565b005b3480156100fd57600080fd5b506101066106e3565b6040516101139190610d95565b60405180910390f35b34801561012857600080fd5b50610131610771565b60405161013e9190610dd8565b60405180910390f35b34801561015357600080fd5b5061016e60048036038101906101699190610e2e565b610795565b60405161017b9190610dd8565b60405180910390f35b34801561019057600080fd5b506101ab60048036038101906101a69190610e87565b6107d4565b005b3480156101b957600080fd5b506101c26108a5565b6040516101cf9190610f2b565b60405180910390f35b3480156101e457600080fd5b506101ed6108b8565b6040516101fa9190611004565b60405180910390f35b61020b610946565b005b34801561021957600080fd5b50610234600480360381019061022f9190610e2e565b610bb7565b6040516102419190611035565b60405180910390f35b34801561025657600080fd5b5061025f610bf6565b60405161026c9190610dd8565b60405180910390f35b60008054906101000a900473ffffffffffffffffffffffffffffffffffffffff1673ffffffffffffffffffffffffffffffffffffffff163373ffffffffffffffffffffffffffffffffffffffff1614610303576040517f08c379a00000000000000000000000000000000000000000000000000000000081526004016102fa906110ad565b60405180910390fd5b60018081111561031657610315610eb4565b5b600060149054906101000a900460ff16600181111561033857610337610eb4565b5b14610378576040517f08c379a000000000000000000000000000000000000000000000000000000000815260040161036f90611119565b60405180910390fd5b60006002610384610c1c565b8154811061039557610394611139565b5b9060005260206000200160009054906101000a900473ffffffffffffffffffffffffffffffffffffffff169050600047905081600460006101000a81548173ffffffffffffffffffffffffffffffffffffffff021916908373ffffffffffffffffffffffffffffffffffffffff1602179055506003829080600181540180825580915050600190039060005260206000200160009091909190916101000a81548173ffffffffffffffffffffffffffffffffffffffff021916908373ffffffffffffffffffffffffffffffffffffffff160217905550600260006104799190610c67565b60008273ffffffffffffffffffffffffffffffffffffffff168260405161049f90611199565b60006040518083038185875af1925050503d80600081146104dc576040519150601f19603f3d011682016040523d82523d6000602084013e6104e1565b606091505b5050905080610525576040517f08c379a000000000000000000000000000000000000000000000000000000000815260040161051c906111fa565b60405180910390fd5b818373ffffffffffffffffffffffffffffffffffffffff167f9c2270628a9b29d30ae96b6c4c14ed646ee134febdce38a5b77f2bde9cea2e2060405160405180910390a3505050565b60008054906101000a900473ffffffffffffffffffffffffffffffffffffffff1673ffffffffffffffffffffffffffffffffffffffff163373ffffffffffffffffffffffffffffffffffffffff16146105fc576040517f08c379a00000000000000000000000000000000000000000000000000000000081526004016105f3906110ad565b60405180910390fd5b6001600060146101000a81548160ff0219169083600181111561062257610621610eb4565b5b0217905550565b60008054906101000a900473ffffffffffffffffffffffffffffffffffffffff1673ffffffffffffffffffffffffffffffffffffffff163373ffffffffffffffffffffffffffffffffffffffff16146106b7576040517f08c379a00000000000000000000000000000000000000000000000000000000081526004016106ae906110ad565b60405180910390fd5b60008060146101000a81548160ff021916908360018111156106dc576106db610eb4565b5b0217905550565b6060600280548060200260200160405190810160405280929190818152602001828054801561076757602002820191906000526020600020905b8160009054906101000a900473ffffffffffffffffffffffffffffffffffffffff1673ffffffffffffffffffffffffffffffffffffffff168152602001906001019080831161071d575b5050505050905090565b60008054906101000a900473ffffffffffffffffffffffffffffffffffffffff1681565b600381815481106107a557600080fd5b906000526020600020016000915054906101000a900473ffffffffffffffffffffffffffffffffffffffff1681565b60008054906101000a900473ffffffffffffffffffffffffffffffffffffffff1673ffffffffffffffffffffffffffffffffffffffff163373ffffffffffffffffffffffffffffffffffffffff1614610862576040517f08c379a0000000000000000000000000000000000000000000000000000000008152600401610859906110ad565b60405180910390fd5b806000806101000a81548173ffffffffffffffffffffffffffffffffffffffff021916908373ffffffffffffffffffffffffffffffffffffffff16021790555050565b600060149054906101000a900460ff1681565b6060600380548060200260200160405190810160405280929190818152602001828054801561093c57602002820191906000526020600020905b8160009054906101000a900473ffffffffffffffffffffffffffffffffffffffff1673ffffffffffffffffffffffffffffffffffffffff16815260200190600101908083116108f2575b5050505050905090565b60018081111561095957610958610eb4565b5b600060149054906101000a900460ff16600181111561097b5761097a610eb4565b5b146109bb576040517f08c379a00000000000000000000000000000000000000000000000000000000081526004016109b290611119565b60405180910390fd5b600154341015610a00576040517f08c379a00000000000000000000000000000000000000000000000000000000081526004016109f790611266565b60405180910390fd5b600154341115610b0f57600060015434610a1a91906112b5565b905060003373ffffffffffffffffffffffffffffffffffffffff1682604051610a4290611199565b60006040518083038185875af1925050503d8060008114610a7f576040519150601f19603f3d011682016040523d82523d6000602084013e610a84565b606091505b5050905080610ac8576040517f08c379a0000000000000000000000000000000000000000000000000000000008152600401610abf90611335565b60405180910390fd5b813373ffffffffffffffffffffffffffffffffffffffff167fbb28353e4598c3b9199101a66e0989549b659a59a54d2c27fbb183f1932c8e6d60405160405180910390a350505b6002339080600181540180825580915050600190039060005260206000200160009091909190916101000a81548173ffffffffffffffffffffffffffffffffffffffff021916908373ffffffffffffffffffffffffffffffffffffffff1602179055503373ffffffffffffffffffffffffffffffffffffffff167f52e92d4898337244a39bd42674ac561eadfd3959e947deec1c0ab82dd58b5a7560405160405180910390a2565b60028181548110610bc757600080fd5b906000526020600020016000915054906101000a900473ffffffffffffffffffffffffffffffffffffffff1681565b600460009054906101000a900473ffffffffffffffffffffffffffffffffffffffff1681565b60008044426002604051602001610c3593929190611494565b6040516020818303038152906040528051906020012060001c905060028054905081610c6191906114fc565b91505090565b5080546000825590600052602060002090810190610c859190610c88565b50565b5b80821115610ca1576000816000905550600101610c89565b5090565b600081519050919050565b600082825260208201905092915050565b6000819050602082019050919050565b600073ffffffffffffffffffffffffffffffffffffffff82169050919050565b6000610cfc82610cd1565b9050919050565b610d0c81610cf1565b82525050565b6000610d1e8383610d03565b60208301905092915050565b6000602082019050919050565b6000610d4282610ca5565b610d4c8185610cb0565b9350610d5783610cc1565b8060005b83811015610d88578151610d6f8882610d12565b9750610d7a83610d2a565b925050600181019050610d5b565b5085935050505092915050565b60006020820190508181036000830152610daf8184610d37565b905092915050565b6000610dc282610cd1565b9050919050565b610dd281610db7565b82525050565b6000602082019050610ded6000830184610dc9565b92915050565b600080fd5b6000819050919050565b610e0b81610df8565b8114610e1657600080fd5b50565b600081359050610e2881610e02565b92915050565b600060208284031215610e4457610e43610df3565b5b6000610e5284828501610e19565b91505092915050565b610e6481610db7565b8114610e6f57600080fd5b50565b600081359050610e8181610e5b565b92915050565b600060208284031215610e9d57610e9c610df3565b5b6000610eab84828501610e72565b91505092915050565b7f4e487b7100000000000000000000000000000000000000000000000000000000600052602160045260246000fd5b60028110610ef457610ef3610eb4565b5b50565b6000819050610f0582610ee3565b919050565b6000610f1582610ef7565b9050919050565b610f2581610f0a565b82525050565b6000602082019050610f406000830184610f1c565b92915050565b600081519050919050565b600082825260208201905092915050565b6000819050602082019050919050565b610f7b81610db7565b82525050565b6000610f8d8383610f72565b60208301905092915050565b6000602082019050919050565b6000610fb182610f46565b610fbb8185610f51565b9350610fc683610f62565b8060005b83811015610ff7578151610fde8882610f81565b9750610fe983610f99565b925050600181019050610fca565b5085935050505092915050565b6000602082019050818103600083015261101e8184610fa6565b905092915050565b61102f81610cf1565b82525050565b600060208201905061104a6000830184611026565b92915050565b600082825260208201905092915050565b7f4e6f7420617574686f72697a6564000000000000000000000000000000000000600082015250565b6000611097600e83611050565b91506110a282611061565b602082019050919050565b600060208201905081810360008301526110c68161108a565b9050919050565b7f4e6f7420616c6c6f776564000000000000000000000000000000000000000000600082015250565b6000611103600b83611050565b915061110e826110cd565b602082019050919050565b60006020820190508181036000830152611132816110f6565b9050919050565b7f4e487b7100000000000000000000000000000000000000000000000000000000600052603260045260246000fd5b600081905092915050565b50565b6000611183600083611168565b915061118e82611173565b600082019050919050565b60006111a482611176565b9150819050919050565b7f416477617264696e67206661696c656400000000000000000000000000000000600082015250565b60006111e4601083611050565b91506111ef826111ae565b602082019050919050565b60006020820190508181036000830152611213816111d7565b9050919050565b7f596f752073686f756c642073656e7420302e3030312065746800000000000000600082015250565b6000611250601983611050565b915061125b8261121a565b602082019050919050565b6000602082019050818103600083015261127f81611243565b9050919050565b7f4e487b7100000000000000000000000000000000000000000000000000000000600052601160045260246000fd5b60006112c082610df8565b91506112cb83610df8565b9250828210156112de576112dd611286565b5b828203905092915050565b7f526566756e64206661696c656400000000000000000000000000000000000000600082015250565b600061131f600d83611050565b915061132a826112e9565b602082019050919050565b6000602082019050818103600083015261134e81611312565b9050919050565b6000819050919050565b61137061136b82610df8565b611355565b82525050565b600081549050919050565b600081905092915050565b60008190508160005260206000209050919050565b6113aa81610cf1565b82525050565b60006113bc83836113a1565b60208301905092915050565b60008160001c9050919050565b600073ffffffffffffffffffffffffffffffffffffffff82169050919050565b6000611408611403836113c8565b6113d5565b9050919050565b600061141b82546113f5565b9050919050565b6000600182019050919050565b600061143a82611376565b6114448185611381565b935061144f8361138c565b8060005b83811015611487576114648261140f565b61146e88826113b0565b975061147983611422565b925050600181019050611453565b5085935050505092915050565b60006114a0828661135f565b6020820191506114b0828561135f565b6020820191506114c0828461142f565b9150819050949350505050565b7f4e487b7100000000000000000000000000000000000000000000000000000000600052601260045260246000fd5b600061150782610df8565b915061151283610df8565b925082611522576115216114cd565b5b82820690509291505056fea26469706673582212200c49af42e24e9a12d7894e6e18d3a0b1d4c6f645c079dc9d997e818faa4ee73e64736f6c63430008090033",
  "linkReferences": {},
  "deployedLinkReferences": {}
}