{
  "_format": "hh-sol-artifact-1",
  "contractName": "Winlo",
  "sourceName": "contracts/Winlo.sol",
  "abi": [
    {
      "anonymous": false,
      "inputs": [
        {
          "indexed": false,
          "internalType": "address",
          "name": "",
          "type": "address"
        }
      ],
      "name": "NewPlayer",
      "type": "event"
    },
    {
      "anonymous": false,
      "inputs": [
        {
          "indexed": false,
          "internalType": "address",
          "name": "",
          "type": "address"
        },
        {
          "indexed": false,
          "internalType": "uint256",
          "name": "",
          "type": "uint256"
        }
      ],
      "name": "Refund",
      "type": "event"
    },
    {
      "anonymous": false,
      "inputs": [
        {
          "indexed": false,
          "internalType": "address",
          "name": "",
          "type": "address"
        },
        {
          "indexed": false,
          "internalType": "uint256",
          "name": "",
          "type": "uint256"
        }
      ],
      "name": "Winner",
      "type": "event"
    },
    {
      "inputs": [],
      "name": "buyTicket",
      "outputs": [],
      "stateMutability": "payable",
      "type": "function"
    },
    {
      "inputs": [
        {
          "internalType": "address",
          "name": "_owner",
          "type": "address"
        }
      ],
      "name": "changeOwner",
      "outputs": [],
      "stateMutability": "nonpayable",
      "type": "function"
    },
    {
      "inputs": [],
      "name": "getPlayers",
      "outputs": [
        {
          "internalType": "address payable[]",
          "name": "",
          "type": "address[]"
        }
      ],
      "stateMutability": "view",
      "type": "function"
    },
    {
      "inputs": [],
      "name": "getWinners",
      "outputs": [
        {
          "internalType": "address[]",
          "name": "",
          "type": "address[]"
        }
      ],
      "stateMutability": "view",
      "type": "function"
    },
    {
      "inputs": [],
      "name": "lastWinner",
      "outputs": [
        {
          "internalType": "address",
          "name": "",
          "type": "address"
        }
      ],
      "stateMutability": "view",
      "type": "function"
    },
    {
      "inputs": [],
      "name": "owner",
      "outputs": [
        {
          "internalType": "address",
          "name": "",
          "type": "address"
        }
      ],
      "stateMutability": "view",
      "type": "function"
    },
    {
      "inputs": [],
      "name": "pause",
      "outputs": [],
      "stateMutability": "nonpayable",
      "type": "function"
    },
    {
      "inputs": [
        {
          "internalType": "uint256",
          "name": "",
          "type": "uint256"
        }
      ],
      "name": "players",
      "outputs": [
        {
          "internalType": "address payable",
          "name": "",
          "type": "address"
        }
      ],
      "stateMutability": "view",
      "type": "function"
    },
    {
      "inputs": [],
      "name": "selectWinner",
      "outputs": [],
      "stateMutability": "nonpayable",
      "type": "function"
    },
    {
      "inputs": [],
      "name": "state",
      "outputs": [
        {
          "internalType": "enum CircuitBreaker.State",
          "name": "",
          "type": "uint8"
        }
      ],
      "stateMutability": "view",
      "type": "function"
    },
    {
      "inputs": [],
      "name": "unpause",
      "outputs": [],
      "stateMutability": "nonpayable",
      "type": "function"
    },
    {
      "inputs": [
        {
          "internalType": "uint256",
          "name": "",
          "type": "uint256"
        }
      ],
      "name": "winners",
      "outputs": [
        {
          "internalType": "address",
          "name": "",
          "type": "address"
        }
      ],
      "stateMutability": "view",
      "type": "function"
    }
  ],
  "bytecode": "0x608060405266038d7ea4c6800060015534801561001b57600080fd5b50336000806101000a81548173ffffffffffffffffffffffffffffffffffffffff021916908373ffffffffffffffffffffffffffffffffffffffff1602179055506001600060146101000a81548160ff021916908360018111156100825761008161008c565b5b02179055506100bb565b7f4e487b7100000000000000000000000000000000000000000000000000000000600052602160045260246000fd5b611579806100ca6000396000f3fe6080604052600436106100a75760003560e01c8063a6f9dae111610064578063a6f9dae114610184578063c19d93fb146101ad578063df15c37e146101d8578063edca914c14610203578063f71d96cb1461020d578063fe1881841461024a576100a7565b806333a99e04146100ac5780633f4ba83a146100c35780638456cb59146100da5780638b5b9ccc146100f15780638da5cb5b1461011c578063a2fb117514610147575b600080fd5b3480156100b857600080fd5b506100c1610275565b005b3480156100cf57600080fd5b506100d8610563565b005b3480156100e657600080fd5b506100ef61061e565b005b3480156100fd57600080fd5b506101066106d8565b6040516101139190610d73565b60405180910390f35b34801561012857600080fd5b50610131610766565b60405161013e9190610db6565b60405180910390f35b34801561015357600080fd5b5061016e60048036038101906101699190610e0c565b61078a565b60405161017b9190610db6565b60405180910390f35b34801561019057600080fd5b506101ab60048036038101906101a69190610e65565b6107c9565b005b3480156101b957600080fd5b506101c261089a565b6040516101cf9190610f09565b60405180910390f35b3480156101e457600080fd5b506101ed6108ad565b6040516101fa9190610fe2565b60405180910390f35b61020b61093b565b005b34801561021957600080fd5b50610234600480360381019061022f9190610e0c565b610b95565b6040516102419190611013565b60405180910390f35b34801561025657600080fd5b5061025f610bd4565b60405161026c9190610db6565b60405180910390f35b60008054906101000a900473ffffffffffffffffffffffffffffffffffffffff1673ffffffffffffffffffffffffffffffffffffffff163373ffffffffffffffffffffffffffffffffffffffff1614610303576040517f08c379a00000000000000000000000000000000000000000000000000000000081526004016102fa9061108b565b60405180910390fd5b60018081111561031657610315610e92565b5b600060149054906101000a900460ff16600181111561033857610337610e92565b5b14610378576040517f08c379a000000000000000000000000000000000000000000000000000000000815260040161036f906110f7565b60405180910390fd5b60006002610384610bfa565b8154811061039557610394611117565b5b9060005260206000200160009054906101000a900473ffffffffffffffffffffffffffffffffffffffff169050600047905081600460006101000a81548173ffffffffffffffffffffffffffffffffffffffff021916908373ffffffffffffffffffffffffffffffffffffffff1602179055506003829080600181540180825580915050600190039060005260206000200160009091909190916101000a81548173ffffffffffffffffffffffffffffffffffffffff021916908373ffffffffffffffffffffffffffffffffffffffff160217905550600260006104799190610c45565b60008273ffffffffffffffffffffffffffffffffffffffff168260405161049f90611177565b60006040518083038185875af1925050503d80600081146104dc576040519150601f19603f3d011682016040523d82523d6000602084013e6104e1565b606091505b5050905080610525576040517f08c379a000000000000000000000000000000000000000000000000000000000815260040161051c906111d8565b60405180910390fd5b7f9c2270628a9b29d30ae96b6c4c14ed646ee134febdce38a5b77f2bde9cea2e208383604051610556929190611207565b60405180910390a1505050565b60008054906101000a900473ffffffffffffffffffffffffffffffffffffffff1673ffffffffffffffffffffffffffffffffffffffff163373ffffffffffffffffffffffffffffffffffffffff16146105f1576040517f08c379a00000000000000000000000000000000000000000000000000000000081526004016105e89061108b565b60405180910390fd5b6001600060146101000a81548160ff0219169083600181111561061757610616610e92565b5b0217905550565b60008054906101000a900473ffffffffffffffffffffffffffffffffffffffff1673ffffffffffffffffffffffffffffffffffffffff163373ffffffffffffffffffffffffffffffffffffffff16146106ac576040517f08c379a00000000000000000000000000000000000000000000000000000000081526004016106a39061108b565b60405180910390fd5b60008060146101000a81548160ff021916908360018111156106d1576106d0610e92565b5b0217905550565b6060600280548060200260200160405190810160405280929190818152602001828054801561075c57602002820191906000526020600020905b8160009054906101000a900473ffffffffffffffffffffffffffffffffffffffff1673ffffffffffffffffffffffffffffffffffffffff1681526020019060010190808311610712575b5050505050905090565b60008054906101000a900473ffffffffffffffffffffffffffffffffffffffff1681565b6003818154811061079a57600080fd5b906000526020600020016000915054906101000a900473ffffffffffffffffffffffffffffffffffffffff1681565b60008054906101000a900473ffffffffffffffffffffffffffffffffffffffff1673ffffffffffffffffffffffffffffffffffffffff163373ffffffffffffffffffffffffffffffffffffffff1614610857576040517f08c379a000000000000000000000000000000000000000000000000000000000815260040161084e9061108b565b60405180910390fd5b806000806101000a81548173ffffffffffffffffffffffffffffffffffffffff021916908373ffffffffffffffffffffffffffffffffffffffff16021790555050565b600060149054906101000a900460ff1681565b6060600380548060200260200160405190810160405280929190818152602001828054801561093157602002820191906000526020600020905b8160009054906101000a900473ffffffffffffffffffffffffffffffffffffffff1673ffffffffffffffffffffffffffffffffffffffff16815260200190600101908083116108e7575b5050505050905090565b60018081111561094e5761094d610e92565b5b600060149054906101000a900460ff1660018111156109705761096f610e92565b5b146109b0576040517f08c379a00000000000000000000000000000000000000000000000000000000081526004016109a7906110f7565b60405180910390fd5b6001543410156109f5576040517f08c379a00000000000000000000000000000000000000000000000000000000081526004016109ec9061127c565b60405180910390fd5b600154341115610af957600060015434610a0f91906112cb565b905060003373ffffffffffffffffffffffffffffffffffffffff1682604051610a3790611177565b60006040518083038185875af1925050503d8060008114610a74576040519150601f19603f3d011682016040523d82523d6000602084013e610a79565b606091505b5050905080610abd576040517f08c379a0000000000000000000000000000000000000000000000000000000008152600401610ab49061134b565b60405180910390fd5b7fbb28353e4598c3b9199101a66e0989549b659a59a54d2c27fbb183f1932c8e6d3383604051610aee929190611207565b60405180910390a150505b6002339080600181540180825580915050600190039060005260206000200160009091909190916101000a81548173ffffffffffffffffffffffffffffffffffffffff021916908373ffffffffffffffffffffffffffffffffffffffff1602179055507f52e92d4898337244a39bd42674ac561eadfd3959e947deec1c0ab82dd58b5a7533604051610b8b9190610db6565b60405180910390a1565b60028181548110610ba557600080fd5b906000526020600020016000915054906101000a900473ffffffffffffffffffffffffffffffffffffffff1681565b600460009054906101000a900473ffffffffffffffffffffffffffffffffffffffff1681565b60008044426002604051602001610c13939291906114aa565b6040516020818303038152906040528051906020012060001c905060028054905081610c3f9190611512565b91505090565b5080546000825590600052602060002090810190610c639190610c66565b50565b5b80821115610c7f576000816000905550600101610c67565b5090565b600081519050919050565b600082825260208201905092915050565b6000819050602082019050919050565b600073ffffffffffffffffffffffffffffffffffffffff82169050919050565b6000610cda82610caf565b9050919050565b610cea81610ccf565b82525050565b6000610cfc8383610ce1565b60208301905092915050565b6000602082019050919050565b6000610d2082610c83565b610d2a8185610c8e565b9350610d3583610c9f565b8060005b83811015610d66578151610d4d8882610cf0565b9750610d5883610d08565b925050600181019050610d39565b5085935050505092915050565b60006020820190508181036000830152610d8d8184610d15565b905092915050565b6000610da082610caf565b9050919050565b610db081610d95565b82525050565b6000602082019050610dcb6000830184610da7565b92915050565b600080fd5b6000819050919050565b610de981610dd6565b8114610df457600080fd5b50565b600081359050610e0681610de0565b92915050565b600060208284031215610e2257610e21610dd1565b5b6000610e3084828501610df7565b91505092915050565b610e4281610d95565b8114610e4d57600080fd5b50565b600081359050610e5f81610e39565b92915050565b600060208284031215610e7b57610e7a610dd1565b5b6000610e8984828501610e50565b91505092915050565b7f4e487b7100000000000000000000000000000000000000000000000000000000600052602160045260246000fd5b60028110610ed257610ed1610e92565b5b50565b6000819050610ee382610ec1565b919050565b6000610ef382610ed5565b9050919050565b610f0381610ee8565b82525050565b6000602082019050610f1e6000830184610efa565b92915050565b600081519050919050565b600082825260208201905092915050565b6000819050602082019050919050565b610f5981610d95565b82525050565b6000610f6b8383610f50565b60208301905092915050565b6000602082019050919050565b6000610f8f82610f24565b610f998185610f2f565b9350610fa483610f40565b8060005b83811015610fd5578151610fbc8882610f5f565b9750610fc783610f77565b925050600181019050610fa8565b5085935050505092915050565b60006020820190508181036000830152610ffc8184610f84565b905092915050565b61100d81610ccf565b82525050565b60006020820190506110286000830184611004565b92915050565b600082825260208201905092915050565b7f4e6f7420617574686f72697a6564000000000000000000000000000000000000600082015250565b6000611075600e8361102e565b91506110808261103f565b602082019050919050565b600060208201905081810360008301526110a481611068565b9050919050565b7f4e6f7420616c6c6f776564000000000000000000000000000000000000000000600082015250565b60006110e1600b8361102e565b91506110ec826110ab565b602082019050919050565b60006020820190508181036000830152611110816110d4565b9050919050565b7f4e487b7100000000000000000000000000000000000000000000000000000000600052603260045260246000fd5b600081905092915050565b50565b6000611161600083611146565b915061116c82611151565b600082019050919050565b600061118282611154565b9150819050919050565b7f416477617264696e67206661696c656400000000000000000000000000000000600082015250565b60006111c260108361102e565b91506111cd8261118c565b602082019050919050565b600060208201905081810360008301526111f1816111b5565b9050919050565b61120181610dd6565b82525050565b600060408201905061121c6000830185610da7565b61122960208301846111f8565b9392505050565b7f596f752073686f756c642073656e7420302e3030312065746800000000000000600082015250565b600061126660198361102e565b915061127182611230565b602082019050919050565b6000602082019050818103600083015261129581611259565b9050919050565b7f4e487b7100000000000000000000000000000000000000000000000000000000600052601160045260246000fd5b60006112d682610dd6565b91506112e183610dd6565b9250828210156112f4576112f361129c565b5b828203905092915050565b7f526566756e64206661696c656400000000000000000000000000000000000000600082015250565b6000611335600d8361102e565b9150611340826112ff565b602082019050919050565b6000602082019050818103600083015261136481611328565b9050919050565b6000819050919050565b61138661138182610dd6565b61136b565b82525050565b600081549050919050565b600081905092915050565b60008190508160005260206000209050919050565b6113c081610ccf565b82525050565b60006113d283836113b7565b60208301905092915050565b60008160001c9050919050565b600073ffffffffffffffffffffffffffffffffffffffff82169050919050565b600061141e611419836113de565b6113eb565b9050919050565b6000611431825461140b565b9050919050565b6000600182019050919050565b60006114508261138c565b61145a8185611397565b9350611465836113a2565b8060005b8381101561149d5761147a82611425565b61148488826113c6565b975061148f83611438565b925050600181019050611469565b5085935050505092915050565b60006114b68286611375565b6020820191506114c68285611375565b6020820191506114d68284611445565b9150819050949350505050565b7f4e487b7100000000000000000000000000000000000000000000000000000000600052601260045260246000fd5b600061151d82610dd6565b915061152883610dd6565b925082611538576115376114e3565b5b82820690509291505056fea26469706673582212208b1c281ebe7a32a954377166910d847acc660547633a3c0bbee3ee0b3ff65be764736f6c63430008090033",
  "linkReferences": {},
  "deployedLinkReferences": {}
}